{
  "_format": "hh-sol-artifact-1",
  "contractName": "Payment",
  "sourceName": "contracts/Payment.sol",
  "abi": [
    {
      "anonymous": false,
      "inputs": [
        {
          "indexed": false,
          "internalType": "address",
          "name": "workflow",
          "type": "address"
        },
        {
          "indexed": false,
          "internalType": "address",
          "name": "toekn",
          "type": "address"
        },
        {
          "indexed": false,
          "internalType": "uint256",
          "name": "amount",
          "type": "uint256"
        }
      ],
      "name": "Freeze",
      "type": "event"
    },
    {
      "anonymous": false,
      "inputs": [
        {
          "indexed": false,
          "internalType": "address",
          "name": "workflow",
          "type": "address"
        },
        {
          "indexed": false,
          "internalType": "address",
          "name": "token",
          "type": "address"
        },
        {
          "indexed": false,
          "internalType": "uint256",
          "name": "amount",
          "type": "uint256"
        }
      ],
      "name": "TopUp",
      "type": "event"
    },
    {
      "anonymous": false,
      "inputs": [
        {
          "indexed": false,
          "internalType": "address",
          "name": "workflow",
          "type": "address"
        },
        {
          "indexed": false,
          "internalType": "address",
          "name": "token",
          "type": "address"
        },
        {
          "indexed": false,
          "internalType": "address",
          "name": "to",
          "type": "address"
        },
        {
          "indexed": false,
          "internalType": "uint256",
          "name": "amount",
          "type": "uint256"
        },
        {
          "indexed": false,
          "internalType": "uint256",
          "name": "tax",
          "type": "uint256"
        },
        {
          "components": [
            {
              "internalType": "address",
              "name": "middleman",
              "type": "address"
            },
            {
              "internalType": "uint256",
              "name": "commissionRate",
              "type": "uint256"
            }
          ],
          "indexed": false,
          "internalType": "struct IPayment.MiddlemanInfo[]",
          "name": "middlemen",
          "type": "tuple[]"
        }
      ],
      "name": "Transfer",
      "type": "event"
    },
    {
      "anonymous": false,
      "inputs": [
        {
          "indexed": false,
          "internalType": "address",
          "name": "workflow",
          "type": "address"
        },
        {
          "indexed": false,
          "internalType": "address",
          "name": "toekn",
          "type": "address"
        },
        {
          "indexed": false,
          "internalType": "uint256",
          "name": "amount",
          "type": "uint256"
        }
      ],
      "name": "Unfreeze",
      "type": "event"
    },
    {
      "anonymous": false,
      "inputs": [
        {
          "indexed": false,
          "internalType": "address",
          "name": "token",
          "type": "address"
        },
        {
          "indexed": false,
          "internalType": "address",
          "name": "receiver",
          "type": "address"
        },
        {
          "indexed": false,
          "internalType": "uint256",
          "name": "amount",
          "type": "uint256"
        }
      ],
      "name": "WithdrawPlatformTax",
      "type": "event"
    },
    {
      "inputs": [],
      "name": "ETH_ADDRESS",
      "outputs": [
        {
          "internalType": "address",
          "name": "",
          "type": "address"
        }
      ],
      "stateMutability": "view",
      "type": "function"
    },
    {
      "inputs": [],
      "name": "TAX_DENOMINATOR",
      "outputs": [
        {
          "internalType": "uint256",
          "name": "",
          "type": "uint256"
        }
      ],
      "stateMutability": "view",
      "type": "function"
    },
    {
      "inputs": [],
      "name": "factory",
      "outputs": [
        {
          "internalType": "address",
          "name": "",
          "type": "address"
        }
      ],
      "stateMutability": "view",
      "type": "function"
    },
    {
      "inputs": [
        {
          "internalType": "address",
          "name": "token",
          "type": "address"
        },
        {
          "internalType": "uint256",
          "name": "amount",
          "type": "uint256"
        }
      ],
      "name": "freeze",
      "outputs": [],
      "stateMutability": "nonpayable",
      "type": "function"
    },
    {
      "inputs": [
        {
          "internalType": "address",
          "name": "_factory",
          "type": "address"
        }
      ],
      "name": "initialize",
      "outputs": [],
      "stateMutability": "nonpayable",
      "type": "function"
    },
    {
      "inputs": [
        {
          "internalType": "address",
          "name": "",
          "type": "address"
        }
      ],
      "name": "platformTax",
      "outputs": [
        {
          "internalType": "uint256",
          "name": "",
          "type": "uint256"
        }
      ],
      "stateMutability": "view",
      "type": "function"
    },
    {
      "inputs": [
        {
          "internalType": "address",
          "name": "token",
          "type": "address"
        },
        {
          "internalType": "uint256",
          "name": "amount",
          "type": "uint256"
        }
      ],
      "name": "topUp",
      "outputs": [],
      "stateMutability": "payable",
      "type": "function"
    },
    {
      "inputs": [
        {
          "internalType": "address",
          "name": "",
          "type": "address"
        }
      ],
      "name": "totalBalance",
      "outputs": [
        {
          "internalType": "uint256",
          "name": "",
          "type": "uint256"
        }
      ],
      "stateMutability": "view",
      "type": "function"
    },
    {
      "inputs": [
        {
          "internalType": "address",
          "name": "token",
          "type": "address"
        },
        {
          "internalType": "address",
          "name": "to",
          "type": "address"
        },
        {
          "internalType": "uint256",
          "name": "amount",
          "type": "uint256"
        },
        {
          "components": [
            {
              "internalType": "address",
              "name": "middleman",
              "type": "address"
            },
            {
              "internalType": "uint256",
              "name": "commissionRate",
              "type": "uint256"
            }
          ],
          "internalType": "struct IPayment.MiddlemanInfo[]",
          "name": "middlemen",
          "type": "tuple[]"
        }
      ],
      "name": "transfer",
      "outputs": [],
      "stateMutability": "nonpayable",
      "type": "function"
    },
    {
      "inputs": [
        {
          "internalType": "address",
          "name": "token",
          "type": "address"
        },
        {
          "internalType": "uint256",
          "name": "amount",
          "type": "uint256"
        }
      ],
      "name": "unfreeze",
      "outputs": [],
      "stateMutability": "nonpayable",
      "type": "function"
    },
    {
      "inputs": [
        {
          "internalType": "address",
          "name": "token",
          "type": "address"
        },
        {
          "internalType": "address",
          "name": "receiver",
          "type": "address"
        }
      ],
      "name": "withdrawPlatformTax",
      "outputs": [],
      "stateMutability": "nonpayable",
      "type": "function"
    },
    {
      "inputs": [
        {
          "internalType": "address",
          "name": "",
          "type": "address"
        },
        {
          "internalType": "address",
          "name": "",
          "type": "address"
        }
      ],
      "name": "workflowBalance",
      "outputs": [
        {
          "internalType": "uint256",
          "name": "",
          "type": "uint256"
        }
      ],
      "stateMutability": "view",
      "type": "function"
    },
    {
      "inputs": [
        {
          "internalType": "address",
          "name": "",
          "type": "address"
        },
        {
          "internalType": "address",
          "name": "",
          "type": "address"
        }
      ],
      "name": "workflowFrozen",
      "outputs": [
        {
          "internalType": "uint256",
          "name": "",
          "type": "uint256"
        }
      ],
      "stateMutability": "view",
      "type": "function"
    }
  ],
  "bytecode": "0x608060405234801561001057600080fd5b5061136e806100206000396000f3fe6080604052600436106100c25760003560e01c8063a51c9ace1161007f578063c4d66de811610059578063c4d66de814610237578063d6f7ddf914610257578063db0a9f501461026a578063fb6501811461029757600080fd5b8063a51c9ace146101c1578063a734f06e146101d7578063c45a01551461021757600080fd5b806324bce60c146100c75780636414e50d146100e95780636eacd398146101345780637b46b80b146101615780639a44e36f146101815780639b80ef2f146101a1575b600080fd5b3480156100d357600080fd5b506100e76100e2366004610f61565b6102cf565b005b3480156100f557600080fd5b50610121610104366004610f8b565b600360209081526000928352604080842090915290825290205481565b6040519081526020015b60405180910390f35b34801561014057600080fd5b5061012161014f366004610fbe565b60026020526000908152604090205481565b34801561016d57600080fd5b506100e761017c366004610f61565b6104a5565b34801561018d57600080fd5b506100e761019c366004610f8b565b610665565b3480156101ad57600080fd5b506100e76101bc366004611049565b610706565b3480156101cd57600080fd5b5061012161271081565b3480156101e357600080fd5b506101ff73eeeeeeeeeeeeeeeeeeeeeeeeeeeeeeeeeeeeeeee81565b6040516001600160a01b03909116815260200161012b565b34801561022357600080fd5b506000546101ff906001600160a01b031681565b34801561024357600080fd5b506100e7610252366004610fbe565b610ac8565b6100e7610265366004610f61565b610b31565b34801561027657600080fd5b50610121610285366004610fbe565b60016020526000908152604090205481565b3480156102a357600080fd5b506101216102b2366004610f8b565b600460209081526000928352604080842090915290825290205481565b60005460405163c444ae5b60e01b81523360048201526001600160a01b039091169063c444ae5b90602401602060405180830381865afa158015610317573d6000803e3d6000fd5b505050506040513d601f19601f8201168201806040525081019061033b9190611147565b6103605760405162461bcd60e51b815260040161035790611169565b60405180910390fd5b600081116103805760405162461bcd60e51b815260040161035790611191565b3360009081526003602090815260408083206001600160a01b0386168452909152902054818110156103f45760405162461bcd60e51b815260206004820152601e60248201527f696e73756666696369656e742062616c616e636520746f20667265657a6500006044820152606401610357565b3360009081526003602090815260408083206001600160a01b0387168452909152812080548492906104279084906111d5565b90915550503360009081526004602090815260408083206001600160a01b03871684529091528120805484929061045f9084906111ec565b90915550506040517f9c1bb91193a19e2d8b7de78d6d5f9a33e56682d9e2680839872d71b94ed5587e9061049890339086908690611204565b60405180910390a1505050565b60005460405163c444ae5b60e01b81523360048201526001600160a01b039091169063c444ae5b90602401602060405180830381865afa1580156104ed573d6000803e3d6000fd5b505050506040513d601f19601f820116820180604052508101906105119190611147565b61052d5760405162461bcd60e51b815260040161035790611169565b6000811161054d5760405162461bcd60e51b815260040161035790611191565b3360009081526004602090815260408083206001600160a01b0386168452909152902054818110156105c15760405162461bcd60e51b815260206004820181905260248201527f696e73756666696369656e742062616c616e636520746f20756e667265657a656044820152606401610357565b3360009081526003602090815260408083206001600160a01b0387168452909152812080548492906105f49084906111ec565b90915550503360009081526004602090815260408083206001600160a01b03871684529091528120805484929061062c9084906111d5565b90915550506040517fc3340973ca377a6959d0becb8ecf8626565df4adfaa4f6b74c207ca44cfb3bc79061049890339086908690611204565b6000546001600160a01b031633146106ab5760405162461bcd60e51b81526020600482015260096024820152683337b93134b23232b760b91b6044820152606401610357565b6001600160a01b038216600090815260016020526040812080549190556106d3838383610c57565b7f366412009bcf47f277b3b622ac4e0b348fe6a33a9f3cf6876ba1290cdd9046cf83838360405161049893929190611204565b60005460405163c444ae5b60e01b81523360048201526001600160a01b039091169063c444ae5b90602401602060405180830381865afa15801561074e573d6000803e3d6000fd5b505050506040513d601f19601f820116820180604052508101906107729190611147565b61078e5760405162461bcd60e51b815260040161035790611169565b600082116107ae5760405162461bcd60e51b815260040161035790611191565b3360009081526003602090815260408083206001600160a01b0388168452909152902054828110156108195760405162461bcd60e51b8152602060048201526014602482015273696e73756666696369656e742062616c616e636560601b6044820152606401610357565b61082383826111d5565b3360009081526003602090815260408083206001600160a01b038a168452909152812082905583519192509081908190156109a75760008060009054906101000a90046001600160a01b03166001600160a01b031663452d286e6040518163ffffffff1660e01b8152600401602060405180830381865afa1580156108ac573d6000803e3d6000fd5b505050506040513d601f19601f820116820180604052508101906108d09190611228565b925060005b86518110156109945760006127108883815181106108f5576108f5611241565b6020026020010151602001518a61090c9190611257565b6109169190611276565b905061092281846111ec565b925060006127106109338388611257565b61093d9190611276565b905061094981886111ec565b965061095581836111d5565b915061097f8c8a858151811061096d5761096d611241565b60200260200101516000015184610c57565b5050808061098c90611298565b9150506108d5565b5061099f81886111d5565b915050610a44565b60008054906101000a90046001600160a01b03166001600160a01b0316633370b9cb6040518163ffffffff1660e01b8152600401602060405180830381865afa1580156109f8573d6000803e3d6000fd5b505050506040513d601f19601f82011682018060405250810190610a1c9190611228565b9150612710610a2b8784611257565b610a359190611276565b9250610a4183876111d5565b90505b6001600160a01b03881660009081526001602052604081208054859290610a6c9084906111ec565b90915550610a7d9050888883610c57565b7fd278b1aef3cabab18e0d03f6a9748ab22c8e5b766b5c88aae24a20821abd74b133898989878a604051610ab6969594939291906112b3565b60405180910390a15050505050505050565b6000546001600160a01b031615610b0f5760405162461bcd60e51b815260206004820152600b60248201526a1a5b9a5d1a585b1a5e995960aa1b6044820152606401610357565b600080546001600160a01b0319166001600160a01b0392909216919091179055565b60005460405163c444ae5b60e01b81523360048201526001600160a01b039091169063c444ae5b90602401602060405180830381865afa158015610b79573d6000803e3d6000fd5b505050506040513d601f19601f82011682018060405250810190610b9d9190611147565b610bb95760405162461bcd60e51b815260040161035790611169565b60008111610bd95760405162461bcd60e51b815260040161035790611191565b6000610be6833384610dd1565b3360009081526003602090815260408083206001600160a01b0388168452909152812080549293508392909190610c1e9084906111ec565b90915550506040517f57939c7190667481229eac6b5843a99e86f4981171ad74ddf21c5b51e9fc1e0c9061049890339086908590611204565b6001600160a01b03831673eeeeeeeeeeeeeeeeeeeeeeeeeeeeeeeeeeeeeeee1415610d2a576000826001600160a01b031682611f4090604051600060405180830381858888f193505050503d8060008114610cce576040519150601f19603f3d011682016040523d82523d6000602084013e610cd3565b606091505b5050905080610d245760405162461bcd60e51b815260206004820152601c60248201527f7472616e73666572206e617469766520746f6b656e206661696c6564000000006044820152606401610357565b50610d9f565b60405163a9059cbb60e01b81526001600160a01b0383811660048301526024820183905284169063a9059cbb906044016020604051808303816000875af1158015610d79573d6000803e3d6000fd5b505050506040513d601f19601f82011682018060405250810190610d9d9190611147565b505b6001600160a01b03831660009081526002602052604081208054839290610dc79084906111d5565b9091555050505050565b60006001600160a01b03841673eeeeeeeeeeeeeeeeeeeeeeeeeeeeeeeeeeeeeeee1415610e1a57506001600160a01b038316600090815260026020526040902047905534610f3e565b6040516323b872dd60e01b81526001600160a01b038516906323b872dd90610e4a90869030908790600401611204565b6020604051808303816000875af1158015610e69573d6000803e3d6000fd5b505050506040513d601f19601f82011682018060405250810190610e8d9190611147565b506040516370a0823160e01b81523060048201526000906001600160a01b038616906370a0823190602401602060405180830381865afa158015610ed5573d6000803e3d6000fd5b505050506040513d601f19601f82011682018060405250810190610ef99190611228565b6001600160a01b038616600090815260026020526040902054909150610f1f90826111d5565b6001600160a01b03861660009081526002602052604090209190915590505b9392505050565b80356001600160a01b0381168114610f5c57600080fd5b919050565b60008060408385031215610f7457600080fd5b610f7d83610f45565b946020939093013593505050565b60008060408385031215610f9e57600080fd5b610fa783610f45565b9150610fb560208401610f45565b90509250929050565b600060208284031215610fd057600080fd5b610f3e82610f45565b634e487b7160e01b600052604160045260246000fd5b6040805190810167ffffffffffffffff8111828210171561101257611012610fd9565b60405290565b604051601f8201601f1916810167ffffffffffffffff8111828210171561104157611041610fd9565b604052919050565b6000806000806080858703121561105f57600080fd5b61106885610f45565b93506020611077818701610f45565b93506040808701359350606087013567ffffffffffffffff8082111561109c57600080fd5b818901915089601f8301126110b057600080fd5b8135818111156110c2576110c2610fd9565b6110d0858260051b01611018565b818152858101925060069190911b83018501908b8211156110f057600080fd5b928501925b818410156111375784848d03121561110d5760008081fd5b611115610fef565b61111e85610f45565b81528487013587820152835292840192918501916110f5565b989b979a50959850505050505050565b60006020828403121561115957600080fd5b81518015158114610f3e57600080fd5b6020808252600e908201526d34b73b30b634b21031b0b63632b960911b604082015260600190565b6020808252601490820152731b995959081b9bdb8b5e995c9bc8185b5bdd5b9d60621b604082015260600190565b634e487b7160e01b600052601160045260246000fd5b6000828210156111e7576111e76111bf565b500390565b600082198211156111ff576111ff6111bf565b500190565b6001600160a01b039384168152919092166020820152604081019190915260600190565b60006020828403121561123a57600080fd5b5051919050565b634e487b7160e01b600052603260045260246000fd5b6000816000190483118215151615611271576112716111bf565b500290565b60008261129357634e487b7160e01b600052601260045260246000fd5b500490565b60006000198214156112ac576112ac6111bf565b5060010190565b600060c0820160018060a01b03808a1684526020818a16818601526040828a168187015288606087015287608087015260c060a087015283875180865260e088019150838901955060005b818110156113255786518051871684528501518584015295840195918301916001016112fe565b50909d9c5050505050505050505050505056fea26469706673582212206a56a1775e4e910899f9318d372023471748370b4dae1f9cd1329c295b97648a64736f6c634300080c0033",
  "linkReferences": {},
  "deployedLinkReferences": {}
}